:1000000000308A00A6280000831A0A289000030EF8
:1000100091000F2883129000030E910091140A089A
:1000200097008A018313900E040892000C08930035
:100030000D0894000E0895000F08960083120B1E01
:1000400023288B184C288B1E27280B193A281208B6
:10005000840013088C0014088D0015088E00160803
:100060008F0017088A00110E83008312100E91185A
:10007000831609000B11810118080F3C031D482845
:10008000831686100230831286069801013099008B
:10009000980A0B118A1127288B1001309E0703182C
:1000A0009F0A0319A00A0319A10A8B108A11272895
:1000B00083185C283E3084008C018D018E018F01F5
:1000C000BE01BF01C001C1013D083C043B043A042C
:1000D00003199A282030C2000310B60DB70DB80DD1
:1000E000B90DBE0DBF0DC00DC10D3D084102031D70
:1000F00083283C084002031D83283B083F02031D60
:1001000083283A083E02031C94283A08BE023B08A2
:10011000031C3B0FBF023C08031C3C0FC0023D0800
:10012000031C3D0FC10203148C0D8D0D8E0D8F0D20
:10013000C20B6C283E088000840A3F088000840AB5
:1001400040088000840A41088000080003081F3925
:100150008300980199019D0106309C00C8309B00E6
:100160001C309A00A101A0019F019E01F03083166E
:100170008500013086008501831285018316010800
:10018000C03907388100831281010B118B100B16C7
:100190008B168316011783128B1786178316861307
:1001A0008312061783160613831286168316861289
:1001B000831206168316061283128615831686117D
:1001C00083120615831606118312190BD02A2108F3
:1001D0009D0020089C001F089B001E089A00A1019A
:1001E000A0019F019E018314283084001D08B900DE
:1001F0001C08B8001B08B7001A08B600BD010F3074
:10020000BC004230BB004030BA0058202B08AF0081
:100210002A08AE002908AD002808AC000408B00088
:100220008314313084001D08B9001C08B8001B0875
:10023000B7001A08B600BD01BC012730BB00103062
:10024000BA00582031088C0032088D0033088E0027
:1002500034088F00300884003108AC023208031CD7
:10026000320FAD023308031C330FAE023408031CF7
:10027000340FAF020408B50083102F08B9002E0810
:10028000B8002D08B7002C08B600BD010130BC0035
:100290008630BB00A030BA005820350884000C0816
:1002A000A7008314283084001D08B9001C08B8007A
:1002B0001B08B7001A08B600BD010130BC0086302B
:1002C000BB00A030BA0058202B08AF002A08AE00AF
:1002D0002908AD002808AC000408B00083143130B0
:1002E00084001D08B9001C08B8001B08B7001A08D4
:1002F000B600BD01BC010330BB00E830BA00582095
:1003000031088C0032088D0033088E0034088F00CD
:10031000300884003108AC023208031C320FAD02F1
:100320003308031C330FAE023408031C340FAF0232
:100330000408B50083102F08B9002E08B8002D0856
:10034000B7002C08B600BD01BC012730BB0010303F
:10035000BA005820350884000C08A6008314283001
:1003600084001D08B9001C08B8001B08B7001A0853
:10037000B600BD01BC012730BB001030BA005820C8
:100380002B08AF002A08AE002908AD002808AC00F1
:100390000408B0008314313084001D08B9001C0823
:1003A000B8001B08B7001A08B600BD01BC01BB01AC
:1003B0006430BA00582031088C0032088D003308B0
:1003C0008E0034088F00300884003108AC023208F7
:1003D000031C320FAD023308031C330FAE02340886
:1003E000031C340FAF020408B50083102F08B900B6
:1003F0002E08B8002D08B7002C08B600BD01BC01BE
:100400000330BB00E830BA005820350884000C08DF
:10041000A5008314283084001D08B9001C08B8000A
:100420001B08B7001A08B600BD01BC010330BB00B1
:10043000E830BA0058202B08AF002A08AE0029087F
:10044000AD002808AC000408B000831431308400EB
:100450001D08B9001C08B8001B08B7001A08B60030
:10046000BD01BC01BB016430BA00582031088C00CA
:1004700032088D0033088E0034088F003008840065
:100480003108AC023208031C320FAD023308031CE2
:10049000330FAE023408031C340FAF020408B5005A
:1004A00083102F08B9002E08B8002D08B7002C08BB
:1004B000B600BD01BC01BB016430BA00582035084C
:1004C00084000C08A4008314283084001D08B9009F
:1004D0001C08B8001B08B7001A08B600BD01BC0113
:1004E000BB016430BA0058202B08AF002A08AE00C8
:1004F0002908AD002808AC000408B000831431308E
:1005000084001D08B9001C08B8001B08B7001A08B1
:10051000B600BD01BC01BB010A30BA005820310849
:100520008C0032088D0033088E0034088F003008AC
:1005300084003108AC023208031C320FAD023308CC
:10054000031C330FAE023408031C340FAF0204083F
:10055000B50083102F08B9002E08B8002D08B70089
:100560002C08B600BD01BC01BB010A30BA005820FE
:10057000350884000C08A3008314283084001D086B
:10058000B9001C08B8001B08B7001A08B600BD0166
:10059000BC01BB010A30BA0058202808A20099010A
:1005A000061183160611831222080F39A80083163C
:1005B000850183122808850006308C008C0BDE2A0A
:1005C0000000061583160611831286118316861104
:1005D000831223080F39A800831685018312280887
:1005E000850006308C008C0BF32A000086158316DC
:1005F00086118312061283160612831224080F39FD
:10060000A8008316850183122808850006308C0017
:100610008C0B082B00000616831606128312861216
:1006200083168612831225080F39A80083168501C8
:1006300083122808850006308C008C0B1D2B0000CF
:1006400086168316861283120613831606138312E8
:1006500026080F39A8008316850183122808850013
:1006600006308C008C0B322B000006178316061305
:100670008312861383168613831227080F39A80066
:100680008316850183122808850006308C008C0BA8
:0E069000472B0000861783168613E4286300AC
:02400E00F93F78
:00000001FF
;PIC16F84A
;CRC=48E3  CREATED="15-dic.-22 10:34"
